:100000000C9449000C94AE000C94AE000C94AE001D
:100010000C94AE000C94AE000C94AE000C94AE00A8
:100020000C94AE000C94AE000C94AE000C94AE0098
:100030000C94AE000C94AE000C94AE000C94AE0088
:100040000C94AE000C94AE000C94AE000C94AE0078
:100050000C94AE000C94AE000C94AE000C94AE0068
:100060000C94AE000C94AE000C94AE000C94AE0058
:100070000C94AE000C94AE000C94AE000C94AE0048
:100080000C94AE000C94A9000C94AE000100010188
:10009000800011241FBECFEFD0E1DEBFCDBFECE862
:1000A000F0E040E019C0B791A791379127910791EF
:1000B00007FD0EC097918791EF01F92FE82F0BBF35
:1000C00007900D92A217B307D9F7FE011BBE04C01B
:1000D0001D92A217B307E1F7E139F40721F70E9457
:0A00E00075000C949400F894FFCF13
:1000EA002FEF89E698E1215080409040E1F700C067
:1000FA0000008FEF87BB0E94870061E180E50E94C4
:04010A009F00FFCF84
:10010E0082E080937000E1E7F0E080818C7F808355
:0A011E0085E0809374007894089542
:10012800EC010E94B3000E94B200CE010E94B4000C
:06013800CE010E94B000A0
:10013E00880F816080930001E4E7F0E08081846A9B
:04014E00808308950D
:0A0152008F938FEF88BB8F911895F3
:04015C000C940000FF
:040160000E94730086
:020164000895FC
:020166000895FA
:020168000895F8
:00000001FF
