:020000000B28CB
:10000800DE00030E8312A1000A08A20069290C2849
:100018008312D401D50183011128AB210630831244
:10002800CA001330C900AD30C800C80B1928C90B65
:100038001928CA0B192820288312D5015508031935
:1000480022289F140030BD000030BC000330BB00E4
:10005800FF30BA0046212408C8002508C900CA0193
:10006800CB014B08B0004A08AF004908AE00480869
:10007800AD000030B4000030B3000030B200C8302A
:10008800B10007213008C1002F08C0002E08BF00AA
:100098002D08BE00AB203D08CF003C08CE003B0831
:1000A800CD003A08CC004F08B0004E08AF004D080C
:1000B800AE004C08AD000030B4000030B300003092
:1000C800B2001E30B10007213008D3002F08D2003B
:1000D8002E08D1002D08D000A401A40A01308C21DB
:1000E80053085204510450040319A6280630C900C5
:1000F800F830C800C80B7E28C90B7E2800000130E4
:100108008312C8000030C9000030CA000030CB009C
:100118004808D0024908031C490F93289428D102A3
:100128004A08031C4A0F99289A28D2024B08031C34
:100138004B0F9F28A028D30253085204510450049F
:10014800031D7A28D501A40101308C212228003012
:10015800C6000030C5000030C4000030C3003D08B0
:100168003C043B043A040319FE280130C700BD1BB8
:10017800C9280130C2000310BA0DBB0DBC0DBD0D5E
:10018800C20BBF280130C707BB280130C2000310CB
:10019800C30DC40DC50DC60DC20BCB283D084102C9
:1001A800031DE0283C084002031DE0283B083F02ED
:1001B800031DE0283A083E02031CF1283A08BE0253
:1001C8003B08031C3B0FBF023C08031C3C0FC0024A
:1001D8003D08031C3D0FC102431401300310BD0C40
:1001E800BC0CBB0CBA0CFF3E031DF2280130C70241
:1001F800031DC9284608BD004508BC004408BB00CB
:100208004308BA0008000030B9000030B8000030D8
:10021800B7000030B6002D1C25293108B607320872
:1002280003110318013E031DB70733080311031810
:10023800013E031DB807340803110318013E031DCE
:10024800B9070130B5000310B10DB20DB30DB40DEF
:10025800B50B272901300310B00CAF0CAE0CAD0C58
:10026800FF3E031D2F2930082F042E042D04031DE3
:100278000F293908B0003808AF003708AE00360833
:10028800AD0008009F18462983161E088312A60091
:1002980006300310A60CFF3E031D4D292608A700B3
:1002A800A8011E08A900AA010310A90DAA0D031090
:1002B800A90DAA0D27082904AB0028082A04AC00B8
:1002C8002B08A4002C08A5000800A301851A83297F
:1002D800C730A0006F29A00B6E29722973290A3034
:1002E80083122302031C80295508031D7D29013030
:1002F8007E290030D50083290130A3076A29FE3002
:100308008B0522088A00210E8300DE0E5E0E09008E
:10031800A6002403031D9C290130A500260A96295E
:100328000310A50DFF3E031D94292508D404A82910
:100338000130A500260AA2290310A50DFF3E031DC2
:10034800A0292508FF3AD40554088500080083161B
:1003580085012130850425309500C8308B00203078
:100368009600013083129F00113083169F00080009
:02400E009431EB
:00000001FF
