:020000000B28CB
:10000800DE00030E8312A9000A08AA00192A0C2888
:100018008312D201D301D401D501D601D701D80169
:10002800D901DA01DB01DC0183011A28FE218312E0
:1000380058080319202821281B280B305702031CB5
:10004800262827281B28AB01AB0A0130992100304C
:100058008312BB000030BA000330B900FF30B8008B
:100068005B08AB005C08AC00AD01AE010030B2002B
:100078000030B1000030B000C830AF000F2183124B
:100088002E08BF002D08BE002C08BD002B08BC00A0
:10009800AA2083123B08CD003A08CC003908CB00CF
:1000A8003808CA004D08AE004C08AD004B08AC003B
:1000B8004A08AB000030B2000030B1000030B00098
:1000C8000530AF000F2183122E08D1002D08D00073
:1000D8002C08CF002B08CE0096280730C7007D30AB
:1000E800C600C60B7528C70B752801308312C600D9
:1000F8000030C7000030C8000030C9004608CE02F2
:100108004708031C470F89288A28CF024808031C80
:10011800480F8F289028D0024908031C490F9528BA
:100128009628D102510850044F044E0403199D2803
:100138009E28A3285808031DA228A3287128AB01CC
:10014800013099218312D8011B280B280030831213
:10015800C4000030C3000030C2000030C1003B08BA
:100168003A04390438040319BA28BB28062901308F
:10017800C500C9280130C0000310B80DB90DBA0D6B
:10018800BB0DC00BC0280130C507BB1FCC28CD282C
:10019800BE280130C0000310C10DC20DC30DC40D2F
:1001A800C00BCF283B083F02031DE4283A083E0253
:1001B800031DE42839083D02031DE42838083C02E1
:1001C800031CE728E828F7283808BC023908031C6C
:1001D800390FBD023A08031C3A0FBE023B08031C44
:1001E8003B0FBF02411401300310BB0CBA0CB90C11
:1001F800B80CFF3E031DF8280130C502031D052970
:100208000629CD284408BB004308BA004208B900B3
:100218004108B800080000308312B7000030B6006B
:100228000030B5000030B4002B1C1B291C293329D1
:100238002F08B407300803110318013E03192529B4
:10024800B507310803110318013E03192C29B60715
:10025800320803110318013E03193329B707013087
:10026800B3000310AF0DB00DB10DB20DB30B3529AE
:1002780001300310AE0CAD0CAC0CAB0CFF3E031DF3
:100288003D292E082D042C042B04031D4C294D292F
:1002980018293708AE003608AD003508AC00340818
:1002A800AB000800FE3083129005FB308F001D3034
:1002B8008E001014643056020318632964296C29CF
:1002C8000230D9000330312201308312D607722957
:1002D8000130D900003031228312D6010130530297
:1002E800013003195202031C7A297B298529013020
:1002F80055020030031954020318832984298529DB
:1003080042228312580803198A298B299729013018
:100318005502003003195402031893299429972988
:100328000130D7079829D70108008312AD002B03A5
:10033800031D9F29A029AC290130AC002D0AA6294C
:100348000310AC0DFF3E031DA4292C08DA04B829BC
:100358000130AC002D0AB2290310AC0DFF3E031D7D
:10036800B0292C08FF3ADA055A088500080002303F
:1003780083125906031DC129C229CD295508D30066
:100388005408D200DD2183122108D5002008D400AA
:10039800DA295903031DD129D229D929DD2183124C
:1003A8002108DC002008DB00DA29DD218312D901CD
:1003B800080083161E088312A20006300310A20C40
:1003C800FF3E031DE2292208A300A4011E08A50080
:1003D800A6010310A50DA60D0310A50DA60D230853
:1003E8002504A70024082604A8002708A000280838
:1003F800A10008001930831685009501C0308B00D4
:10040800013083129F00193083169F008101353017
:1004180083129000FE309005FB308F001D308E0057
:100428001014413083168C0008000C1C1C2A1D2A4D
:10043800222A5621FE3083128C052A2A0C1F252ACF
:10044800262A2A2ABB21BF3083128C052A088A0053
:10045800290E8300DE0E5E0E09008312A100F33020
:100468009F052108A00001300310A00DFF3E031DC9
:10047800382A0310200D9F049F140800831258087F
:100488000319472A482A4A2AD8014C2A0130D80099
:0204980008005A
:02400E009431EB
:00000001FF
