:100000000428FF3FFF3FFF3F05288312B901BA01D3
:1000100083016C2B8501B701250803190800B8017D
:100020000130A7000030A8003808A90001300310F3
:10003000A90DFF3E031D17280310290D2507AA004F
:1000400026080318013EAB0027082A078400280869
:100050000318280A2B07DF000023023A0319FD28A2
:100060003808A70001300310A70DFF3E031D3328F9
:100070000310270D2507840026080318260ADF0031
:100080000023003A031D472883161F180800831217
:100090003808A70001300310A70DFF3E031D4B28B1
:1000A0000310270D2507840026080318260ADF0001
:1000B0000023013A031D5F2883169F18080083124E
:1000C0003808A70001300310A70DFF3E031D632869
:1000D0000310270D2507840026080318260ADF00D1
:1000E0000023023A031D772883161F190800831284
:1000F0003808A70001300310A70DFF3E031D7B2821
:100100000310270D2507840026080318260ADF00A0
:100110000023043A031D8F2883169F19080001301D
:100120008312A7000030A8003808A900013003108E
:10013000A90DFF3E031D97280310290D2507AA00CE
:1001400026080318013EAB0027082A078400280868
:100150000318280A2B07DF000023A0000230AC00A0
:100160000030AD003808AE0001300310AE0DFF3E88
:10017000031DB52803102E0D2507AF002608031810
:10018000013EB0002C082F0784002D0803182D0A0B
:100190003007DF000023A1000330B1000030B200BF
:1001A0003808B30001300310B30DFF3E031DD32800
:1001B0000310330D2507B40026080318013EB500CF
:1001C00031083407840032080318320A3507DF008B
:1001D0000023A2003808B60001300310B60DFF3E20
:1001E000031DED280310360D25078400260803188B
:1001F000260ADF000023F221B7003708031D08009C
:100200000130B8070630380203180800102820080B
:1002100003190800A8012808A2002207200784006B
:1002200021080318210ADF000023A7000130A200E3
:100230000030A3002808A40024072007A5002108F7
:100240000318013EA600220825078400230803188E
:10025000230A2607DF000023A900A2292908031D7D
:10026000080083161F140514E9292908031D080036
:10027000FE304C2929089F292908031D0800FE305B
:1002800094292903031D080083169F148514E92966
:100290002903031D0800FD309905E9292903031DE1
:1002A000080083169914E92929039F292903031DAE
:1002B0000800FD30942902302906031D080083162A
:1002C0001F150515E92902302906031D0800DF3036
:1002D0006E2902302906031D0800BF3083168105F0
:1002E000E92902302906031D08001917E9290230FF
:1002F0002906031D0800FB30942903309E29043091
:100300002906031D080083169F150516E9290430E8
:100310002906031D08009017E92904309E2904309E
:100320002906031D0800F73083169F05E9290530CB
:100330002906031D08009014E92905302906031D2C
:100340000800E9292708003A03193C29013A031952
:100350002E29033A03193529013A03193A29073A94
:1003600003195629013A03194129033A0319482967
:10037000013A03194E290F3A03195429013A031976
:100380007729033A03195B29013A03196329073ACC
:1003900003196929013A03197129033A03197D29BF
:1003A000013A03197D291F3A03198F29013A0319CC
:1003B0007F29033A03198729013A03198D29073A3E
:1003C00003199D29013A03199729033A03199D2915
:1003D000F12901308312A80706302802031808000B
:1003E0000B290800A40006302402031CF92901305F
:1003F00008002008031D092A0130A300240A022A4C
:100400000310A30DFF3E031D002A23088316850455
:10041000192A2003031DF7290130A300240A122AF8
:100420000310A30DFF3E031D102A2308FF3A831675
:10043000850583122203031D322A03302406031983
:10044000322A7F308316810501308312A300240AEB
:100450002B2A0310A30DFF3E031D292A2308831610
:100460009504422A2208031DF7290130A300240A1B
:100470003B2A0310A30DFF3E031D392A2308FF3A30
:100480008316950583122003031D642A2103031D8F
:10049000552A0130A300240A4F2A0310A30DFF3E62
:1004A000031D4D2A23088504642A2108031DF7290A
:1004B0000130A300240A5E2A0310A30DFF3E031D92
:1004C0005C2A2308FF3A850500300800FF3FFF3F04
:10060000DF1B0A2B83135F1883170008840A031962
:10061000DF0A08005F087F398A000408840A03198A
:10062000DF0A820000340034013400340234003424
:100630000334003400340134003400340134013414
:100640000034003402340234003400340334003403
:1006500000340034043400340034003405340034F1
:100660000034013400340034043401340A340234D8
:100670000E3403341034043414340534A1001F1430
:10068000BF309F051F088F3083169F051F16542B00
:1006900083161F14632B83169F14632B83161F1559
:1006A000632B83169F15632B83122108003A0319CD
:1006B000482B013A03194B2B033A03194E2B013AED
:1006C0000319512B6B2B83122003031D692B9F17DA
:1006D00008007F309F0508003230A0008330A10061
:1006E00007211A30A5008330A6000A208312A0013A
:1006F000A00A02303E230428FF3FFF3FFF3FFF3F99
:02400E009431EB
:00000001FF
