:020000000B28CB
:10000800DE00030E8312A1000A08A200712B0C283F
:100018008312D901DA018301112823230630CA008B
:100028001330C900AD30C800C80B1828C90B1828F0
:10003800CA0B18281F2837308312B0000430B100CB
:1000480034224F30B0000330B10034220E30B000FB
:100058000230B10034221D30B0000130B10034222A
:10006800DA015A08031935289F140030BD00003002
:10007800BC000330BB00FF30BA004E232408C80080
:100088002508C900CA01CB014B08B0004A08AF00D7
:100098004908AE004808AD000030B4000030B30095
:1000A8000030B200C830B1007A223008C1002F08F1
:1000B800C0002E08BF002D08BE008E213D08CF00CD
:1000C8003C08CE003B08CD003A08CC004F08B000F1
:1000D8004E08AF004D08AE004C08AD000030B4002B
:1000E8000030B3000030B2005A30B1007A22300834
:1000F800D6002F08D5002E08D4002D08D300A4015F
:10010800A40A043093230130D2004F290030A700FD
:100118000030A6000030A5006430A4005608AB00EB
:100128005508AA005408A9005308A800EA2127087E
:100138002604250424040319A4285208031929298C
:100148000030BD000030BC000030BB00C830BA0031
:100158005608C1005508C0005408BF005308BE0027
:100168008E213B08D8003A08D7005830A400023046
:10017800A5005808A7005708A600B9222408013E80
:100188008400C623C80000304804B0000430B10021
:1001980034220A30AB000030AC003C30A400003000
:1001A800A5005808A7005708A600B9222508AE00E0
:1001B8002408AD00F3222B08013E8400C623C800A2
:1001C80080304804B0000330B10034220A30A40063
:1001D8000030A5005808AE005708AD003C30AB0011
:1001E8000030AC00F3222C08A7002B08A600B92287
:1001F8002408013E8400C623C80000304804B0002B
:100208000230B10034225808AE005708AD003C3027
:10021800AB000030AC00F3222C08D1002B08D00032
:100228000A30AB000030AC005108AE005008AD00F9
:10023800F3222B08013E8400C623C800003048047E
:10024800B0000130B1003422D2010530C900BA3003
:10025800C800C80B2D29C90B2D293229013083125A
:10026800C8000030C9000030CA000030CB00480880
:10027800D3024908031C490F42294329D4024A08DA
:10028800031C4A0F48294929D5024B08031C4B0F68
:100298004E294F29D6025608550454045304031D09
:1002A8005A08031D8A28DA01A40104309323B223D3
:1002B8001D30B0000430B10034224730B0000330A4
:1002C800B10034224730B0000230B1003422063089
:1002D800CA001330C900AD30C800C80B7129C90B5A
:1002E8007129CA0B7129782937308312B00004307C
:1002F800B10034224F30B0000330B10034220E3048
:10030800B0000230B10034221D30B0000130B1001D
:10031800342235280030C6000030C5000030C40043
:100328000030C3003D083C043B043A040319E129AA
:100338000130C700BD1BAC290130C2000310BA0D43
:10034800BB0DBC0DBD0DC20BA2290130C7079E29EC
:100358000130C2000310C30DC40DC50DC60DC20B7C
:10036800AE293D084102031DC3293C084002031D74
:10037800C3293B083F02031DC3293A083E02031C58
:10038800D4293A08BE023B08031C3B0FBF023C08B5
:10039800031C3C0FC0023D08031C3D0FC10243145F
:1003A80001300310BD0CBC0CBB0CBA0CFF3E031D86
:1003B800D5290130C702031DAC294608BD004508F0
:1003C800BC004408BB004308BA00080027082604FC
:1003D8002504240403192B2A0130AD00A71B002A89
:1003E8000130AC000310A40DA50DA60DA70DAC0B94
:1003F800F6290130AD07F22927082B02031D0E2A22
:1004080026082A02031D0E2A25082902031D0E2A82
:1004180024082802031C1E2A2408A8022508031CF5
:10042800250FA9022608031C260FAA022708031C69
:10043800270FAB0201300310A70CA60CA50CA40CC7
:10044800FF3E031D1F2A0130AD02031D002A2B08A1
:10045800A7002A08A6002908A5002808A400080063
:10046800A40105309323B701B801831237080F3C64
:10047800B200B20A0130B3000030B400462A0310BB
:10048800B30DB40DB20B432A30083305B50031085B
:100498003405B600350836040319552AA401A40A00
:1004A800562AA4010130932300008312A401A40A50
:1004B8000230932300008312A401023093230130F9
:1004C800B7070318B80A0030B8073808803ADF00C1
:1004D80080305F02031D722A10303702031C392A4C
:1004E8008312A401A40A0530932308000030B90040
:1004F8000030B8000030B7000030B6002D1C982A34
:100508003108B607320803110318013E031DB70767
:10051800330803110318013E031DB80734080311FB
:100528000318013E031DB9070130B5000310B10DD2
:10053800B20DB30DB40DB50B9A2A01300310B00CEF
:10054800AF0CAE0CAD0CFF3E031DA22A30082F04E1
:100558002E042D04031D822A3908B0003808AF0084
:100568003708AE003608AD000800A801A901240824
:1005780025040319EE2A0130AA00A51BCD2A013053
:100588000310A40DA50DFF3E031DC42A0130AA07C0
:10059800C12A01300310A80DA90DFF3E031DCE2A64
:1005A80025082702031DDA2A24082602031CE32A49
:1005B8002408A6022508031CA703A7022814013053
:1005C8000310A50CA40CFF3E031DE42A0130AA0267
:1005D800031DCD2A2908A5002808A40008002B0817
:1005E8002C0403191E2B0130AF00AC1B052B013066
:1005F8000310AB0DAC0DFF3E031DFC2A0130AF0705
:10060800F92A2C082E02031D0B2B2B082D02031C84
:10061800132B2B08AD022C08031CAE03AE020130CD
:100628000310AC0CAB0CFF3E031D142B0130AF02C2
:10063800031D052B2E08AC002D08AB00080009305F
:100648008316850001309500C8308B00083096006D
:10065800013083129F00113083169F0000308312EF
:10066800B0000930B10034220F30B0000A30B100B8
:1006780034220730B0000B30B10034220130B00012
:100688000C30B10034220030B0000F30B1003422F9
:10069800B22308009F184E2B83161E088312A6004B
:1006A80006300310A60CFF3E031D552B2608A70095
:1006B800A8011E08A900AA010310A90DAA0D03107C
:1006C800A90DAA0D27082904AB0028082A04AC00A4
:1006D8002B08A4002C08A5000800A30185198A2B63
:1006E800C730A000772BA00B762B7A2B7B2B83129D
:1006F800230A031D872B5A08031D842B0130852BE1
:100708000030DA008A2B0130A307722BFE308B05EC
:1007180022088A00210E8300DE0E5E0E0900A60064
:100728002403031DA32B0130A500260A9D2B0310CB
:10073800A50DFF3E031D9B2B2508D904AF2B0130C7
:10074800A500260AA92B0310A50DFF3E031DA72B04
:100758002508FF3AD9055908850008000130BB0073
:100768003B08B900BA013908BA00B9013908B00024
:100778003A08B10034220130BB0705303B020318A8
:100788000800B42B03308A000408840A8207003466
:100798007E3430346D34793433345B345F347034C0
:0407A8007F347B34EB
:02400E009431EB
:00000001FF
