:020000000B28CB
:10000800DE00030E8312A1000A08A200A7280C280C
:100018000121B400AF01B001B101B201B301830104
:100028001528F6200D308312A800FB30A700A70B77
:100038001B28A80B1B2820288312B3019F280030F7
:10004800AE000030AD000230AC005830AB00A40167
:10005800A40A0130D42007308312A8007D30A700FD
:10006800A70B3428A80B3428C23083122B06031D93
:1000780043282C032D042E04031D43284428472815
:1000880001308312B1008312300803194C284D281F
:100098005228A401A40A0430D4205528A40104300D
:1000A800D42001308312A7000030A8000030A90036
:1000B8000030AA002708AB022808031C280F65286F
:1000C8006628AC022908031C290F6B286C28AD028E
:1000D8002A08031C2A0F71287228AE022E082D0444
:1000E8002C042B04031D79287A282F28B101300805
:1000F80003197F288028862806303402031C8528A7
:1001080086288F28B301A4010130D420013083123E
:10011800B400B0019228B0010130B40730080319C7
:10012800962897289C28A401A40A0430D4209F2844
:10013800A4010430D42083123308031DA428A52861
:1001480023289F280B28A301BC28C730A000AC286F
:10015800A00BAB28AF28B0285F3083122302031C02
:10016800B628B728BA280130B300C0280130A30741
:10017800851EBF28C028A92831080319C428C52806
:10018800CB28851AC828C928CB280130B000FE30F2
:100198008B0522088A00210E8300DE0E5E0E090000
:1001A8008312A6002403031DDA28DB28E728013080
:1001B800A500260AE1280310A50DFF3E031DDF2830
:1001C8002508B204F3280130A500260AED280310FB
:1001D800A50DFF3E031DEB282508FF3AB20532089E
:1001E800850008008316850121308504213095009B
:0C01F800C8308B00203096000800013455
:02400E009431EB
:00000001FF
