:020000000B28CB
:10000800DE00030E8312A0000A08A100AC2B0C2806
:100018008312D801D90183011128F72206308312EF
:10002800C8001330C700AD30C600C60B1928C70B6F
:100038001928C80B1928202837308312A500043046
:10004800A60061224F308312A5000330A60061226A
:100058000E308312A5000230A60061221D308312E3
:10006800A5000130A60061228312D901A1299F149D
:100078000030BB000030BA000330B900FF30B800D0
:100088004C2383122208C6002308C700C801C901EF
:100098004908AE004808AD004708AC004608AB0068
:1000A8000030B2000030B1000030B000C830AF00FE
:1000B800B02283122E08BF002D08BE002C08BD00F8
:1000C8002B08BC00A92183123B08CE003A08CD00BA
:1000D8003908CC003808CB004E08AE004D08AD00FA
:1000E8004C08AC004B08AB000030B2000030B10047
:1000F8000030B0005A30AF00B02283122E08D5006D
:100108002D08D4002C08D3002B08D200A201A20A83
:100118000430722356290030AB000030AA000030AA
:10012800A9000A30A8005508AF005408AE005308CB
:10013800AD005208AC000E2283122B082A042904B1
:100148002804031DA828A92832290130D10001302C
:10015800D6000030D7000310560DB800570DB9006F
:10016800BA01BB015508AF005408AE005308AD00F2
:100178005208AC001430A4000030A5005708A300B2
:100188005608A200262383122208C6002308C700A7
:10019800C801C9014908AB004808AA004708A900D6
:1001A8004608A8000E2283122B08BF002A08BE00AA
:1001B8002908BD002808BC00A92183123908D000ED
:1001C8003808CF00643056065704031DEC28ED2884
:1001D80005294F08013E8400C123C600803046042B
:1001E800C7000030C8005108C900CA014908CA0040
:1001F800C90147084904A50048084A04A600612225
:1002080018294F08013E8400C123C600C7015108C0
:10021800C800C9014808C900C80146084804A50023
:1002280047084904A60061220A308312A200003060
:10023800A3005708A5005608A40026238312230804
:10024800D7002208D6000130D107273057021030D6
:1002580003195602031C31293229AF28F930C60088
:100268003529C60B34293829392901308312C600AB
:100278000030C7000030C8000030C9004608D2026C
:100288004708031C470F49294A29D3024808031C79
:10029800480F4F295029D4024908031C490F5529F2
:1002A8005629D502831255085404530452040319DD
:1002B8005E295F2964295908031D632964298F2849
:1002C800D901A2010430722394231D308312A500A2
:1002D8000430A600612247308312A5000330A6002F
:1002E800612247308312A5000230A6006122063041
:1002F8008312C8001330C700AD30C600C60B822970
:10030800C70B8229C80B8229892937308312A50097
:100318000430A60061224F308312A5000330A600E6
:1003280061220E308312A5000230A60061221D3022
:100338008312A5000130A600612283125908031D0B
:10034800A629A7293B28A1290B2800308312C4001D
:100358000030C3000030C2000030C1003B083A043E
:10036800390438040319B929BA29052A0130C50006
:10037800C8290130C0000310B80DB90DBA0DBB0D66
:10038800C00BBF290130C507BB1FCB29CC29BD290C
:100398000130C0000310C10DC20DC30DC40DC00B48
:1003A800CE293B083F02031DE3293A083E02031DFC
:1003B800E32939083D02031DE32938083C02031CE0
:1003C800E629E729F6293808BC023908031C390F41
:1003D800BD023A08031C3A0FBE023B08031C3B0F40
:1003E800BF02411401300310BB0CBA0CB90CB80C95
:1003F800FF3E031DF7290130C502031D042A052A03
:10040800CC294408BB004308BA004208B900410897
:10041800B800080083122B082A04290428040319A9
:10042800162A172A582A0130B100252A0130B000AF
:100438000310A80DA90DAA0DAB0DB00B1C2A013095
:10044800B107AB1F282A292A1A2A2B082F02031DB5
:10045800372A2A082E02031D372A29082D02031DD0
:10046800372A28082C02031C3A2A3B2A492A28083A
:10047800AC022908031C290FAD022A08031C2A0F05
:10048800AE022B08031C2B0FAF0201300310AB0C7C
:10049800AA0CA90CA80CFF3E031D4A2A0130B10280
:1004A800031D572A582A292A2F08AB002E08AA000C
:1004B8002D08A9002C08A80008008312A201053005
:1004C80072238312AC01AD0183122C080F3CA700E4
:1004D800A70A0130A8000030A900752A0310A80D4A
:1004E800A90DA70B722A25082805AA0026082905A0
:1004F800AB002A082B040319822A832A882AA2011E
:10050800A20A013072238B2AA20101307223000053
:100518008312A201A20A0230722300008312A201F0
:100528000230722301308312AC070318AD0A003081
:10053800AD072D08803ADF0080305F02031DA62A30
:1005480010302C02031CA92AAA2A682A8312A201A5
:10055800A20A05307223080000308312B700003069
:10056800B6000030B5000030B4002B1CBC2ABD2AF0
:10057800D42A2F08B407300803110318013E0319C1
:10058800C62AB507310803110318013E0319CD2AFD
:10059800B607320803110318013E0319D42AB70716
:1005A8000130B3000310AF0DB00DB10DB20DB30B98
:1005B800D62A01300310AE0CAD0CAC0CAB0CFF3ED0
:1005C800031DDE2A2E082D042C042B04031DED2AFE
:1005D800EE2AB92A3708AE003608AD003508AC0057
:1005E8003408AB00080009308316850001309500F7
:1005F800C8308B0008309600013083129F001130FC
:1006080083169F0000308312A5000930A6006122DE
:100618000F308312A5000A30A6006122073083122A
:10062800A5000B30A600612201308312A5000C3012
:10063800A600612200308312A5000F30A6006122B7
:10064800942308008312A601A701221C2C2B2D2B12
:10065800332B2408A6070318A70A2508A707013083
:100668000310A40DA50DFF3E031D342B013003100C
:10067800A30CA20CFF3E031D3B2B22082304031DE1
:10068800462B472B292B2708A3002608A200080081
:1006980083129F18502B512B4C2B83161E08831244
:1006A800A40006300310A40CFF3E031D562B24089B
:1006B800A500A6011E08A700A8010310A70DA80DF4
:1006C8000310A70DA80D25082704A900260828044B
:1006D800AA002908A2002A08A30008008312A4007F
:1006E8002203031D782B792B852B0130A300240AC4
:1006F8007F2B0310A30DFF3E031D7D2B2308D80479
:10070800912B0130A300240A8B2B0310A30DFF3E6D
:10071800031D892B2308FF3AD805580885000800CF
:1007280001308312B0003008AE00AF012E08AF00D0
:10073800AE012E08A5002F08A60061220130831201
:10074800B00705303002031CAA2BAB2B972B0800EF
:10075800851DAF2BB02BAC2B59080319B42BB62B26
:100768000130B72B0030D900FE308B0521088A00F4
:10077800200E8300DE0E5E0E090003308A00040896
:10078800840A820700347E3430346D34793433344B
:0A0798005B345F3470347F347B342F
:02400E009431EB
:00000001FF
