:020000000B28CB
:10000800DE00030E8312A1000A08A2008E2B0C2822
:100018008312D801D9018301112821230630C90090
:100028001330C800AD30C700C70B1828C80B1828F4
:10003800C90B18281F2837308312AF000430B000CE
:1000480032224F30AF000330B00032220E30AF0002
:100058000230B00032221D30AF000130B000322231
:10006800D9015908031935289F140030BC00003005
:10007800BB000330BA00FF30B9004C232308C70087
:100088002408C800C901CA014A08AF004908AE00DF
:100098004808AD004708AC000030B3000030B2009B
:1000A8000030B100C830B00078222F08C0002E08F8
:1000B800BF002D08BE002C08BD008C213C08CE00D6
:1000C8003B08CD003A08CC003908CB004E08AF00F9
:1000D8004D08AE004C08AD004B08AC000030B30032
:1000E8000030B2000030B1000F30B00078222F0885
:1000F800D7002E08D6002D08D5002C08D400A3015F
:10010800A30A04306F230130D10057085604550460
:100118005404031955290030A6000030A50000300A
:10012800A4006430A3005708AA005608A90055087F
:10013800A8005408A700E82126082504240423045D
:100148000319A928510803192E290030BC000030D2
:10015800BB000030BA00C830B9005708C0005608C4
:10016800BF005508BE005408BD008C213A08D300D2
:100178003908D2005830A3000230A4005308A60062
:100188005208A500B7222308013E8400BC23C700FB
:1001980000304704AF000430B00032220A30AA0011
:1001A8000030AB003C30A3000030A4005308A60088
:1001B8005208A500B7222408AD002308AC00F1229C
:1001C8002A08013E8400BC23C70080304704AF00E2
:1001D8000330B00032220A30A3000030A4005308D4
:1001E800AD005208AC003C30AA000030AB00F12250
:1001F8002B08A6002A08A500B7222308013E840080
:10020800BC23C70000304704AF000230B0003222E0
:100218005308AD005208AC003C30AA000030AB00D7
:10022800F1222B08D0002A08CF000A30AA0000309B
:10023800AB005008AD004F08AC00F1222A08013E7F
:100248008400BC23C70000304704AF000130B00071
:100258003222D1010530C800BA30C700C70B322995
:10026800C80B3229372901308312C7000030C80073
:100278000030C9000030CA004708D4024808031CEF
:10028800480F47294829D5024908031C490F4D2919
:100298004E29D6024A08031C4A0F53298928D70237
:1002A8008928D901A30104306F23A8231D30AF008A
:1002B8000430B00032224730AF000330B0003222A1
:1002C8004730AF000230B00032220630C900133088
:1002D800C800AD30C700C70B6F29C80B6F29C90B01
:1002E8006F29762937308312AF000430B0003222EC
:1002F8004F30AF000330B00032220E30AF00023072
:10030800B00032221D30AF000130B0003222352853
:100318000030C5000030C4000030C3000030C20007
:100328003C083B043A0439040319DF290130C600AC
:10033800BC1BAA290130C1000310B90DBA0DBB0DB1
:10034800BC0DC10BA0290130C6079C290130C10092
:100358000310C20DC30DC40DC50DC10BAC293C085B
:100368004002031DC1293B083F02031DC1293A0869
:100378003E02031DC12939083D02031CD229390850
:10038800BD023A08031C3A0FBE023B08031C3B0F90
:10039800BF023C08031C3C0FC0024214013003108A
:1003A800BC0CBB0CBA0CB90CFF3E031DD3290130A1
:1003B800C602031DAA294508BC004408BB0043081F
:1003C800BA004208B90008002608250424042304BA
:1003D8000319292A0130AC00A61BFE290130AB0005
:1003E8000310A30DA40DA50DA60DAB0BF429013028
:1003F800AC07F02926082A02031D0C2A2508290221
:10040800031D0C2A24082802031D0C2A230827028E
:10041800031C1C2A2308A7022408031C240FA80273
:100428002508031C250FA9022608031C260FAA026B
:1004380001300310A60CA50CA40CA30CFF3E031D51
:100448001D2A0130AC02031DFE292A08A60029082E
:10045800A5002808A4002708A3000800A301053068
:100468006F23B601B701831236080F3CB100B10AF9
:100478000130B2000030B300442A0310B20DB30DAE
:10048800B10B412A2F083205B40030083305B500F6
:10049800340835040319532AA301A30A542AA301D3
:1004A80001306F2300008312A301A30A02306F23D7
:1004B80000008312A30102306F230130B60703182E
:1004C800B70A0030B7073708803ADF0080305F028C
:1004D800031D702A10303602031C372A8312A30129
:1004E800A30A05306F2308000030B8000030B700B9
:1004F8000030B6000030B5002C1C962A3008B5072D
:10050800310803110318013E031DB6073208031111
:100518000318013E031DB707330803110318013EF2
:10052800031DB8070130B4000310B00DB10DB20DB2
:10053800B30DB40B982A01300310AF0CAE0CAD0C00
:10054800AC0CFF3E031DA02A2F082E042D042C04FA
:10055800031D802A3808AF003708AE003608AD0002
:100568003508AC000800A701A801230824040319D2
:10057800EC2A0130A900A41BCB2A01300310A30DDB
:10058800A40DFF3E031DC22A0130A907BF2A01306E
:100598000310A70DA80DFF3E031DCC2A2408260230
:1005A800031DD82A23082502031CE12A2308A502D3
:1005B8002408031CA603A602271401300310A40C68
:1005C800A30CFF3E031DE22A0130A902031DCB2A1A
:1005D8002808A4002708A30008002A082B040319E8
:1005E8001C2B0130AE00AB1B032B01300310AA0DEE
:1005F800AB0DFF3E031DFA2A0130AE07F72A2B0880
:100608002D02031D092B2A082C02031C112B2A0872
:10061800AC022B08031CAD03AD0201300310AB0C78
:10062800AA0CFF3E031D122B0130AE02031D032B43
:100638002D08AB002C08AA00080009308316850095
:1006480001309500C8308B000830960001308312C5
:100658009F00113083169F0000308312AF000930CD
:10066800B00032220F30AF000A30B000322207301B
:10067800AF000B30B00032220130AF000C30B000B8
:1006880032220030AF000F30B0003222A823080019
:100698009F184C2B83161E088312A50006300310E2
:1006A800A50CFF3E031D532B2508A600A7011E0815
:1006B800A800A9010310A80DA90D0310A80DA90DE4
:1006C80026082804AA0027082904AB002A08A30042
:1006D8002B08A4000800A5002303031D7F2B01306D
:1006E800A400250A792B0310A40DFF3E031D772BC8
:1006F8002408D8048B2B0130A400250A852B03106D
:10070800A40DFF3E031D832B2408FF3AD805580883
:10071800850008008519972BC730A000932BA00BE4
:10072800922B962B972B83125908031D9D2B013072
:100738009E2B0030D900FE308B0522088A00210E3E
:100748008300DE0E5E0E09000130BA003A08B800D8
:10075800B9013808B900B8013808AF003908B00045
:1007680032220130BA0705303A0203180800AA2BD2
:1007780003308A000408840A820700347E34303447
:100788006D34793433345B345F3470347F347B3484
:02400E009431EB
:00000001FF
