:020000000B28CB
:10000800DE00030E8312A1000A08A20062290C2850
:100018008312D401D50183011128D121063083121E
:10002800CA001330C900AD30C800C80B1928C90B65
:100038001928CA0B192820288312D501AE289F1425
:100048000030BD000030BC000330BB00FF30BA00F8
:10005800892183122408C8002508C900CA01CB01D8
:100068004B08B0004A08AF004908AE004808AD0088
:100078000030B4000030B3000030B200C830B10026
:100088001B2183123008C1002F08C0002E08BF00B2
:100098002D08BE00B62083123D08CF003C08CE00D4
:1000A8003B08CD003A08CC004F08B0004E08AF001E
:1000B8004D08AE004C08AD000030B4000030B3006D
:1000C8000030B2001E30B1001B2183123008D3006B
:1000D8002F08D2002E08D1002D08D000A401A40AB0
:1000E8000130AF219D280630C900F830C800C80B80
:1000F8007B28C90B7B28000001308312C800003020
:10010800C9000030CA000030CB004808D0024908B6
:10011800031C490F90289128D1024A08031C4A0F52
:1001280096289728D2024B08031C4B0F9C289D2821
:10013800D302831253085204510450040319A5280A
:10014800A628AA28851EA928AA287728D501A401A7
:100158000130AF2183125508031DB328B428232882
:10016800AE280B2800308312C6000030C5000030CE
:10017800C4000030C3003D083C043B043A040319A2
:10018800C628C72812290130C700D5280130C20067
:100198000310BA0DBB0DBC0DBD0DC20BCC28013030
:1001A800C707BD1FD828D928CA280130C2000310A4
:1001B800C30DC40DC50DC60DC20BDB283D08410299
:1001C800031DF0283C084002031DF0283B083F02AD
:1001D800031DF0283A083E02031CF328F4280329DB
:1001E8003A08BE023B08031C3B0FBF023C08031C35
:1001F8003C0FC0023D08031C3D0FC10243140130EF
:100208000310BD0CBC0CBB0CBA0CFF3E031D04292B
:100218000130C702031D11291229D9284608BD003B
:100228004508BC004408BB004308BA000800003079
:100238008312B9000030B8000030B7000030B600B3
:100248002D1C272928293F293108B6073208031110
:100258000318013E03193129B7073308031103189E
:10026800013E03193829B807340803110318013E61
:1002780003193F29B9070130B5000310B10DB20DBC
:10028800B30DB40DB50B412901300310B00CAF0C00
:10029800AE0CAD0CFF3E031D492930082F042E0477
:1002A8002D04031D5829592924293908B000380874
:1002B800AF003708AE003608AD000800A3017C295E
:1002C800C730A0006729A00B66296A296B29831209
:1002D800230A031D702971297A29550803197529DC
:1002E8007729013078290030D50080290130A3070B
:1002F800851E7F2980296429FE308B0522088A0003
:10030800210E8300DE0E5E0E090083129F188D29D0
:100318008E29892983161E088312A6000630031029
:10032800A60CFF3E031D93292608A700A8011E0856
:10033800A900AA010310A90DAA0D0310A90DAA0D61
:1003480027082904AB0028082A04AC002B08A400BD
:100358002C08A50008008312A6002403031DB52954
:10036800B629C2290130A500260ABC290310A50D0B
:10037800FF3E031DBA292508D404CE290130A50063
:10038800260AC8290310A50DFF3E031DC629250806
:10039800FF3AD405540885000800831685012130EA
:1003A800850425309500C8308B0020309600013038
:0C03B80083129F00113083169F00080084
:02400E009431EB
:00000001FF
