:020000000B28CB
:10000800DE00030E8312A1000A08A200262B0C288A
:100018008312DA01DB0183011128F72206308312EB
:10002800CA001330C900AD30C800C80B1928C90B65
:100038001928CA0B1928202837308312A700043042
:10004800A80061224F308312A7000330A800612264
:100058000E308312A7000230A80061221D308312DF
:10006800A7000130A80061228312DB01A1299F1497
:100078000030BD000030BC000330BB00FF30BA00C8
:10008800732383122408C8002508C900CA01CB01BC
:100098004B08B0004A08AF004908AE004808AD0058
:1000A8000030B4000030B3000030B200C830B100F6
:1000B800B02283123008C1002F08C0002E08BF00EC
:1000C8002D08BE00A92183123D08D0003C08CF00AE
:1000D8003B08CE003A08CD005008B0004F08AF00EA
:1000E8004E08AE004D08AD000030B4000030B3003B
:1000F8000030B2005A30B100B02283123008D70065
:100108002F08D6002E08D5002D08D400A401A40A73
:100118000430992356290030AD000030AC0000307F
:10012800AB000A30AA005708B1005608B0005508BD
:10013800AF005408AE000E2283122D082C042B04A5
:100148002A04031DA828A92832290130D300013028
:10015800D8000030D9000310580DBA00590DBB0063
:10016800BC01BD015708B1005608B0005508AF00E2
:100178005408AE001430A6000030A7005908A500A6
:100188005808A4004D2383122408C8002508C90074
:10019800CA01CB014B08AD004A08AC004908AB00C6
:1001A8004808AA000E2283122D08C1002C08C0009E
:1001B8002B08BF002A08BE00A92183123B08D200E1
:1001C8003A08D100643058065904031DEC28ED287C
:1001D80005295108013E8400D323C8008030480413
:1001E800C9000030CA005308CB00CC014B08CC0032
:1001F800CB0149084B04A7004A084C04A800612217
:1002080018295108013E8400D323C800C9015308A6
:10021800CA00CB014A08CB00CA0148084A04A70013
:1002280049084B04A80061220A308312A400003058
:10023800A5005908A7005808A6004D2383122508D1
:10024800D9002408D8000130D307273059021030CC
:1002580003195802031C31293229AF28F930C80084
:100268003529C80B34293829392901308312C800A7
:100278000030C9000030CA000030CB004808D40262
:100288004908031C490F49294A29D5024A08031C71
:100298004A0F4F295029D6024B08031C4B0F5529EA
:1002A8005629D702831257085604550454040319D3
:1002B8005E295F2964295B08031D632964298F2847
:1002C800DB01A40104309923BB231D308312A7004E
:1002D8000430A800612247308312A7000330A80029
:1002E800612247308312A7000230A800612206303D
:1002F8008312CA001330C900AD30C800C80B822968
:10030800C90B8229CA0B8229892937308312A70091
:100318000430A80061224F308312A7000330A800E0
:1003280061220E308312A7000230A80061221D301E
:100338008312A7000130A800612283125B08031D05
:10034800A629A7293B28A1290B2800308312C6001B
:100358000030C5000030C4000030C3003D083C0434
:100368003B043A040319B929BA29052A0130C70000
:10037800C8290130C2000310BA0DBB0DBC0DBD0D5C
:10038800C20BBF290130C707BD1FCB29CC29BD2906
:100398000130C2000310C30DC40DC50DC60DC20B3C
:1003A800CE293D084102031DE3293C084002031DF4
:1003B800E3293B083F02031DE3293A083E02031CD8
:1003C800E629E729F6293A08BE023B08031C3B0F39
:1003D800BF023C08031C3C0FC0023D08031C3D0F34
:1003E800C102431401300310BD0CBC0CBB0CBA0C89
:1003F800FF3E031DF7290130C702031D042A052A01
:10040800CC294608BD004508BC004408BB00430889
:10041800BA00080083122D082C042B042A0403199F
:10042800162A172A582A0130B300252A0130B200AB
:100438000310AA0DAB0DAC0DAD0DB20B1C2A01308B
:10044800B307AD1F282A292A1A2A2D083102031DAD
:10045800372A2C083002031D372A2B082F02031DC8
:10046800372A2A082E02031C3A2A3B2A492A2A0834
:10047800AE022B08031C2B0FAF022C08031C2C0FF9
:10048800B0022D08031C2D0FB10201300310AD0C72
:10049800AC0CAB0CAA0CFF3E031D4A2A0130B30278
:1004A800031D572A582A292A3108AD003008AC0004
:1004B8002F08AB002E08AA0008008312A4010530FB
:1004C80099238312AE01AF0183122E080F3CA900B5
:1004D800A90A0130AA000030AB00752A0310AA0D42
:1004E800AB0DA90B722A27082A05AC0028082B0592
:1004F800AD002C082D040319822A832A882AA40116
:10050800A40A013099238B2AA40101309923000001
:100518008312A401A40A0230992300008312A401C3
:100528000230992301308312AE070318AF0A003056
:10053800AF072F08803ADF0080305F02031DA62A2C
:1005480010302E02031CA92AAA2A682A8312A401A1
:10055800A40A05309923080000308312B90000303E
:10056800B8000030B7000030B6002D1CBC2ABD2AE8
:10057800D42A3108B607320803110318013E0319BB
:10058800C62AB707330803110318013E0319CD2AF9
:10059800B807340803110318013E0319D42AB90710
:1005A8000130B5000310B10DB20DB30DB40DB50B8C
:1005B800D62A01300310B00CAF0CAE0CAD0CFF3EC8
:1005C800031DDE2A30082F042E042D04031DED2AF6
:1005D800EE2AB92A3908B0003808AF003708AE004B
:1005E8003608AD00080009308316850001309500F3
:1005F800C8308B0008309600013083129F001130FC
:1006080083169F0000308312A7000930A8006122DA
:1006180008308312A7000A30A8006122073083122D
:10062800A7000B30A800612201308312A7000C300C
:10063800A800612200308312A7000F30A8006122B1
:10064800BB230800A301402BC730A0002B2BA00B15
:100658002A2B2E2B2F2B8312230A031D342B352BE9
:100668003E2B5B080319392B3B2B01303C2B003008
:10067800DB00442B0130A307851D432B442B282B7B
:10068800FE308B0522088A00210E8300DE0E5E0EE6
:1006980009008312A801A901241C532B542B5A2B9F
:1006A8002608A8070318A90A2708A9070130031074
:1006B800A60DA70DFF3E031D5B2B01300310A50CF3
:1006C800A40CFF3E031D622B24082504031D6D2B7B
:1006D8006E2B502B2908A5002808A40008008312B7
:1006E8009F18772B782B732B83161E088312A6006E
:1006F80006300310A60CFF3E031D7D2B2608A7001D
:10070800A8011E08A900AA010310A90DAA0D03102B
:10071800A90DAA0D27082904AB0028082A04AC0053
:100728002B08A4002C08A50008008312A6002403A7
:10073800031D9F2BA02BAC2B0130A500260AA62B4E
:100748000310A50DFF3E031DA42B2508DA04B82BC2
:100758000130A500260AB22B0310A50DFF3E031D8C
:10076800B02B2508FF3ADA055A0885000800013041
:100778008312B2003208B000B1013008B100B001F4
:100788003008A7003108A800612201308312B2079F
:1007980005303202031CD12BD22BBE2B08000330AC
:1007A8008A000408840A820700347E3430346D34A9
:0E07B800793433345B345F3470347F347B34F7
:02400E009431EB
:00000001FF
