:020000000B28CB
:10000800DE00030E8312A9000A08AA00232A0C287E
:100018008312D201D301D401D501D601D701D80169
:10002800D901DA01DB01DC0183011A2808228312D5
:1000380058080319202821281B280B305702031CB5
:10004800262827281B28AB01AB0A0130A321003042
:100058008312BB000030BA000330B900FF30B8008B
:100068005B08AB005C08AC00AD01AE010030B2002B
:100078000030B1000030B000C830AF005C218312FE
:100088002E08BF002D08BE002C08BD002B08BC00A0
:10009800AA2083123B08CD003A08CC003908CB00CF
:1000A8003808CA004D08AE004C08AD004B08AC003B
:1000B8004A08AB000030B2000030B1000030B00098
:1000C8000530AF005C2183122E08D1002D08D00026
:1000D8002C08CF002B08CE0096280730C7007D30AB
:1000E800C600C60B7528C70B752801308312C600D9
:1000F8000030C7000030C8000030C9004608CE02F2
:100108004708031C470F89288A28CF024808031C80
:10011800480F8F289028D0024908031C490F9528BA
:100128009628D102510850044F044E0403199D2803
:100138009E28A3285808031DA228A3287128AB01CC
:100148000130A3218312D8011B280B280030831209
:10015800C4000030C3000030C2000030C1003B08BA
:100168003A04390438040319BA28BB28062901308F
:10017800C500C9280130C0000310B80DB90DBA0D6B
:10018800BB0DC00BC0280130C507BB1FCC28CD282C
:10019800BE280130C0000310C10DC20DC30DC40D2F
:1001A800C00BCF283B083F02031DE4283A083E0253
:1001B800031DE42839083D02031DE42838083C02E1
:1001C800031CE728E828F7283808BC023908031C6C
:1001D800390FBD023A08031C3A0FBE023B08031C44
:1001E8003B0FBF02411401300310BB0CBA0CB90C11
:1001F800B80CFF3E031DF8280130C502031D052970
:100208000629CD284408BB004308BA004208B900B3
:100218004108B8000800FE3083129005FB308F00BB
:100228001D308E0010146430560203181C291D2935
:1002380025290230D90003303B2201308312D6072A
:100248002B290130D90000303B228312D60101301E
:100258005302013003195202031C332934293E2961
:100268000130550200300319540203183C293D2976
:100278003E294C228312580803194329442950293E
:100288000130550200300319540203184C294D2936
:1002980050290130D7075129D701013055020130C3
:1002A80003195402031C59295A295B29D80108004B
:1002B80000308312B7000030B6000030B5000030BF
:1002C800B4002B1C6829692980292F08B407300835
:1002D80003110318013E03197229B50731080311E8
:1002E8000318013E03197929B607320803110318C8
:1002F800013E03198029B7070130B3000310AF0D81
:10030800B00DB10DB20DB30B822901300310AE0C44
:10031800AD0CAC0CAB0CFF3E031D8A292E082D0436
:100328002C042B04031D99299A2965293708AE0046
:100338003608AD003508AC003408AB00080083125D
:10034800AD002B03031DA929AA29B6290130AC0049
:100358002D0AB0290310AC0DFF3E031DAE292C0851
:10036800DA04C2290130AC002D0ABC290310AC0DF7
:10037800FF3E031DBA292C08FF3ADA055A08850002
:100388000800023083125906031DCB29CC29D7292E
:100398005508D3005408D200E72183122108D5005C
:1003A8002008D400E4295903031DDB29DC29E329AB
:1003B800E72183122108DC002008DB00E429E7217B
:1003C8008312D901080083161E088312A200063082
:1003D8000310A20CFF3E031DEC292208A300A40170
:1003E8001E08A500A6010310A50DA60D0310A50D56
:1003F800A60D23082504A70024082604A80027081A
:10040800A0002808A100080019308316850095016E
:10041800C0308B00013083129F00193083169F0073
:100428008101353083129000FE309005FB308F003B
:100438001D308E001014413083168C0008000C1CEF
:10044800262A272A2C2A0F21FE3083128C05342ACB
:100458000C1F2F2A302A342AC521BF3083128C055D
:100468002A088A00290E8300DE0E5E0E0900831218
:10047800A100F3309F052108A00001300310A00D52
:10048800FF3E031D422A0310200D9F049F140800FD
:10049800831258080319512A522A542AD801562A75
:0604A8000130D80008003D
:02400E009431EB
:00000001FF
