:020000000B28CB
:10000800DE00030E8312A1000A08A200972B0C2819
:100018008312D901DA0183011128FA2206308312EA
:10002800C9001330C800AD30C700C70B1928C80B6A
:100038001928C90B1928202837308312A600043044
:10004800A70064224F308312A6000330A700642261
:100058000E308312A6000230A70064221D308312DE
:10006800A6000130A70064228312DA01A4299F1494
:100078000030BC000030BB000330BA00FF30B900CC
:100088004F2383122308C7002408C800C901CA01E6
:100098004A08AF004908AE004808AD004708AC0060
:1000A8000030B3000030B2000030B100C830B000FA
:1000B800B32283122F08C0002E08BF002D08BE00EF
:1000C8002C08BD00AC2183123C08CF003B08CE00B1
:1000D8003A08CD003908CC004F08AF004E08AE00F2
:1000E8004D08AD004C08AC000030B3000030B20041
:1000F8000030B1005A30B000B32283122F08D60066
:100108002E08D5002D08D4002C08D300A301A30A7B
:100118000430752383125608550454045304031DF0
:1001280096289728982867290030AC000030AB0043
:100138000030AA000A30A9005608B0005508AF00E0
:100148005408AE005308AD00112283122C082B046A
:100158002A042904031DB128B2283B290130D20002
:100168000130D7000030D8000310570DB900580DE2
:10017800BA00BB01BC015608B0005508AF005408CE
:10018800AE005308AD001430A5000030A600580892
:10019800A4005708A300292383122308C7002408B2
:1001A800C800C901CA014A08AC004908AB004808A0
:1001B800AA004708A900112283122C08C0002B08A6
:1001C800BF002A08BE002908BD00AC2183123A08E6
:1001D800D1003908D000643057065804031DF528AB
:1001E800F6280E295008013E8400CE23C70080302F
:1001F8004704C8000030C9005208CA00CB014A08A9
:10020800CB00CA0148084A04A60049084B04A700C5
:10021800642221295008013E8400CE23C700C8016A
:100228005208C900CA014908CA00C9014708490457
:10023800A60048084A04A70064220A308312A300D3
:100248000030A4005808A6005708A50029238312E7
:100258002408D8002308D7000130D20727305802D5
:10026800103003195702031C3A293B29B828F930E2
:10027800C7003E29C70B3D29412942290130831275
:10028800C7000030C8000030C9000030CA00470865
:10029800D3024808031C480F52295329D40249089D
:1002A800031C490F58295929D5024A08031C4A0F2B
:1002B8005E295F29D6025608550454045304031DC9
:1002C800662967299828DA01A30104307523B62323
:1002D8001D308312A6000430A70064224730831221
:1002E800A6000330A700642247308312A60002301C
:1002F800A700642206308312C9001330C800AD304D
:10030800C700C70B8529C80B8529C90B85298C29E6
:1003180037308312A6000430A70064224F308312BE
:10032800A6000330A70064220E308312A600023014
:10033800A70064221D308312A6000130A7006422A2
:1003480083125A08031DA929AA293B28A4290B2886
:1003580000308312C5000030C4000030C3000030F4
:10036800C2003C083B043A0439040319BC29BD29DE
:10037800082A0130C600CB290130C1000310B90D8D
:10038800BA0DBB0DBC0DC10BC2290130C607BC1F7D
:10039800CE29CF29C0290130C1000310C20DC30DD9
:1003A800C40DC50DC10BD1293C084002031DE62927
:1003B8003B083F02031DE6293A083E02031DE629D1
:1003C80039083D02031CE929EA29F9293908BD023F
:1003D8003A08031C3A0FBE023B08031C3B0FBF023E
:1003E8003C08031C3C0FC002421401300310BC0C33
:1003F800BB0CBA0CB90CFF3E031DFA290130C6022A
:10040800031D072A082ACF294508BC004408BB0059
:100418004308BA004208B900080083122C082B04CC
:100428002A0429040319192A1A2A5B2A0130B2005E
:10043800282A0130B1000310A90DAA0DAB0DAC0D8F
:10044800B10B1F2A0130B207AC1F2B2A2C2A1D2AF8
:100458002C083002031D3A2A2B082F02031D3A2AC2
:100468002A082E02031D3A2A29082D02031C3D2AB8
:100478003E2A4C2A2908AD022A08031C2A0FAE027C
:100488002B08031C2B0FAF022C08031C2C0FB002E7
:1004980001300310AC0CAB0CAA0CA90CFF3E031DD9
:1004A8004D2A0130B202031D5A2A5B2A2C2A300831
:1004B800AC002F08AB002E08AA002D08A9000800E0
:1004C8008312A301053075238312AD01AE01831297
:1004D8002D080F3CA800A80A0130A9000030AA0086
:1004E800782A0310A90DAA0DA80B752A2608290534
:1004F800AB0027082A05AC002B082C040319852A11
:10050800862A8B2AA301A30A013075238E2AA30108
:100518000130752300008312A301A30A023075235A
:1005280000008312A3010230752301308312AD0746
:100538000318AE0A0030AE072E08803ADF0080307C
:100548005F02031DA92A10302D02031CAC2AAD2A14
:100558006B2A8312A301A30A053075230800003013
:100568008312B8000030B7000030B6000030B50084
:100578002C1CBF2AC02AD72A3008B5073108031116
:100588000318013E0319C92AB607320803110318D4
:10059800013E0319D02AB707330803110318013E97
:1005A8000319D72AB8070130B4000310B00DB10DF4
:1005B800B20DB30DB40BD92A01300310AF0CAE0C39
:1005C800AD0CAC0CFF3E031DE12A2F082E042D04B0
:1005D8002C04031DF02AF12ABC2A3808AF0037087A
:1005E800AE003608AD003508AC00080009308316A7
:1005F800850001309500C8308B0008309600013026
:1006080083129F00113083169F0000308312A600CA
:100618000930A70064220F308312A6000A30A70011
:10062800642207308312A6000B30A7006422013031
:100638008312A6000C30A700642200308312A600A3
:100648000F30A7006422B62308008312A701A8016F
:10065800231C2F2B302B362B2508A7070318A80A95
:100668002608A80701300310A50DA60DFF3E031D9F
:10067800372B01300310A40CA30CFF3E031D3E2BA7
:1006880023082404031D492B4A2B2C2B2808A400DB
:100698002708A300080083129F18532B542B4F2BB5
:1006A80083161E088312A50006300310A50CFF3E12
:1006B800031D592B2508A600A7011E08A800A9019B
:1006C8000310A80DA90D0310A80DA90D26082804CC
:1006D800AA0027082904AB002A08A3002B08A400B5
:1006E80008008312A5002303031D7B2B7C2B882B7A
:1006F8000130A400250A822B0310A40DFF3E031D20
:10070800802B2408D904942B0130A400250A8E2BB1
:100718000310A40DFF3E031D8C2B2408FF3AD905B6
:10072800590885000800A02BC730A0009B2BA00B00
:100738009A2B9E2B9F2BA42B851DA32BA42B982B88
:1007480083125A080319A92BAB2B0130AC2B0030AC
:10075800DA00FE308B0522088A00210E8300DE0EA7
:100768005E0E090001308312B1003108AF00B001FC
:100778002F08B000AF012F08A6003008A700642298
:1007880001308312B10705303102031CCC2BCD2B6D
:10079800B92B080003308A000408840A8207003451
:1007A8007E3430346D34793433345B345F347034B0
:0407B8007F347B34DB
:02400E009431EB
:00000001FF
