:02000000FD2BD6
:1006C4008312A0010F30AE2303308312A0000B303D
:1006D400AE230F308312A0000930AE2308308312FA
:1006E400A0000A30AE238312A001A00A0C30AE236E
:1006F400080083169F01073083129900083083167F
:100704008500FF308312850062238312A001A00AB2
:100714000F30AE230B308312A7002630A6005D30C5
:10072400A500A50B932BA60B932BA70B932B9A2B0E
:100734008312A0010F30AE230B308312A7002630A2
:10074400A6005D30A500A50BA52BA60BA52BA70B1A
:10075400A52BAC2B872B00288312A200851208300E
:10076400A3002208A1002308FF3E013EBB2B031077
:10077400A10CFF3E031DB92B2118C12BC42B8312DE
:100784008514C62B8312851005150330A100A10B17
:10079400C92B831205110130A3022308031DD32B97
:1007A400D42BB32B0830A4002008A1002408FF3E5A
:1007B400013EDE2B0310A10CFF3E031DDC2B211890
:1007C400E42BE72B83128514E92B8312851005157E
:1007D4000330A100A10BEC2B831205110130A402FC
:1007E4002408031DF62BF72BD62B85160330A10006
:0A07F400A10BFA2B080083017B2BF8
:02400E009431EB
:00000001FF
