:020000000B28CB
:10000800DE00030E8312A1000A08A200252B0C288B
:100018008312DA01DB0183011128F62206308312EC
:10002800CA001330C900AD30C800C80B1928C90B65
:100038001928CA0B1928202837308312A700043042
:10004800A80060224F308312A7000330A800602266
:100058000E308312A7000230A80060221D308312E0
:10006800A7000130A80060228312DB01A0299F1499
:100078000030BD000030BC000330BB00FF30BA00C8
:10008800722383122408C8002508C900CA01CB01BD
:100098004B08B0004A08AF004908AE004808AD0058
:1000A8000030B4000030B3000030B200C830B100F6
:1000B800AF2283123008C1002F08C0002E08BF00ED
:1000C8002D08BE00A82183123D08D0003C08CF00AF
:1000D8003B08CE003A08CD005008B0004F08AF00EA
:1000E8004E08AE004D08AD000030B4000030B3003B
:1000F8000030B2005A30B100AF2283123008D70066
:100108002F08D6002E08D5002D08D400A401A40A73
:100118000430982356290030AD000030AC00003080
:10012800AB000A30AA005708B1005608B0005508BD
:10013800AF005408AE000D2283122D082C042B04A6
:100148002A04031DA828A92832290130D300013028
:10015800D8000030D9000310580DBA00590DBB0063
:10016800BC01BD015708B1005608B0005508AF00E2
:100178005408AE001430A6000030A7005908A500A6
:100188005808A4004C2383122408C8002508C90075
:10019800CA01CB014B08AD004A08AC004908AB00C6
:1001A8004808AA000D2283122D08C1002C08C0009F
:1001B8002B08BF002A08BE00A82183123B08D200E2
:1001C8003A08D100643058065904031DEC28ED287C
:1001D80005295108013E8400D223C8008030480414
:1001E800C9000030CA005308CB00CC014B08CC0032
:1001F800CB0149084B04A7004A084C04A800602218
:1002080018295108013E8400D223C800C9015308A7
:10021800CA00CB014A08CB00CA0148084A04A70013
:1002280049084B04A80060220A308312A400003059
:10023800A5005908A7005808A6004C2383122508D2
:10024800D9002408D8000130D307273059021030CC
:1002580003195802031C31293229AF28F930C80084
:100268003529C80B34293829392901308312C800A7
:100278000030C9000030CA000030CB004808D40262
:100288004908031C490F49294A29D5024A08031C71
:100298004A0F4F295029D6024B08031C4B0F5529EA
:1002A8005629D702831257085604550454040319D3
:1002B8005E295F296329851D622963298F28DB014F
:1002C800A40104309823BA231D308312A7000430F8
:1002D800A800602247308312A7000330A8006022DC
:1002E80047308312A7000230A8006022063083122C
:1002F800CA001330C900AD30C800C80B8129C90B2A
:100308008129CA0B8129882937308312A700043034
:10031800A80060224F308312A7000330A800602293
:100328000E308312A7000230A80060221D3083120D
:10033800A7000130A800602283125B08031DA529CD
:10034800A6293B28A0290B2800308312C6000030BC
:10035800C5000030C4000030C3003D083C043B0425
:100368003A040319B829B929042A0130C700C72952
:100378000130C2000310BA0DBB0DBC0DBD0DC20B80
:10038800BE290130C707BD1FCA29CB29BC290130A6
:10039800C2000310C30DC40DC50DC60DC20BCD2977
:1003A8003D084102031DE2293C084002031DE229E1
:1003B8003B083F02031DE2293A083E02031CE529D7
:1003C800E629F5293A08BE023B08031C3B0FBF0289
:1003D8003C08031C3C0FC0023D08031C3D0FC10232
:1003E800431401300310BD0CBC0CBB0CBA0CFF3E0F
:1003F800031DF6290130C702031D032A042ACB294D
:100408004608BD004508BC004408BB004308BA00C4
:10041800080083122D082C042B042A040319152A1A
:10042800162A572A0130B300242A0130B2000310DB
:10043800AA0DAB0DAC0DAD0DB20B1B2A0130B307E5
:10044800AD1F272A282A192A2D083102031D362A0A
:100458002C083002031D362A2B082F02031D362ACA
:100468002A082E02031C392A3A2A482A2A08AE02E8
:100478002B08031C2B0FAF022C08031C2C0FB002F7
:100488002D08031C2D0FB10201300310AD0CAC0C6C
:10049800AB0CAA0CFF3E031D492A0130B302031D11
:1004A800562A572A282A3108AD003008AC002F08F0
:1004B800AB002E08AA0008008312A4010530982377
:1004C8008312AE01AF0183122E080F3CA900A90ABE
:1004D8000130AA000030AB00742A0310AA0DAB0D3E
:1004E800A90B712A27082A05AC0028082B05AD009E
:1004F8002C082D040319812A822A872AA401A40A18
:10050800013098238A2AA40101309823000083121D
:10051800A401A40A0230982300008312A401023027
:10052800982301308312AE070318AF0A0030AF07D3
:100538002F08803ADF0080305F02031DA52A1030A3
:100548002E02031CA82AA92A672A8312A401A40A36
:1005580005309823080000308312B9000030B80035
:100568000030B7000030B6002D1CBB2ABC2AD32AA5
:100578003108B607320803110318013E0319C52ACA
:10058800B707330803110318013E0319CC2AB8072B
:10059800340803110318013E0319D32AB90701309F
:1005A800B5000310B10DB20DB30DB40DB50BD52ABE
:1005B80001300310B00CAF0CAE0CAD0CFF3E031DA8
:1005C800DD2A30082F042E042D04031DEC2AED2A01
:1005D800B82A3908B0003808AF003708AE00360826
:1005E800AD00080009308316850001309500C83039
:1005F8008B0008309600013083129F00113083165B
:100608009F0000308312A7000930A80060220F3035
:100618008312A7000A30A800602207308312A700BF
:100628000B30A800602201308312A7000C30A8000C
:10063800602200308312A7000F30A8006022BA237E
:100648000800A3013F2BC730A0002A2BA00B292BA1
:100658002D2B2E2B8312230A031D332B342B3D2BDA
:100668005B080319382B3A2B01303B2B0030DB0099
:10067800432B0130A307851D422B432B272BFE302C
:100688008B0522088A00210E8300DE0E5E0E09000B
:100698008312A801A901241C522B532B592B26087D
:1006A800A8070318A90A2708A90701300310A60DEF
:1006B800A70DFF3E031D5A2B01300310A50CA40CF7
:1006C800FF3E031D612B24082504031D6C2B6D2B95
:1006D8004F2B2908A5002808A400080083129F189A
:1006E800762B772B722B83161E088312A6000630F2
:1006F8000310A60CFF3E031D7C2B2608A700A801AB
:100708001E08A900AA010310A90DAA0D0310A90D1E
:10071800AA0D27082904AB0028082A04AC002B08D6
:10072800A4002C08A50008008312A6002403031DBA
:100738009E2B9F2BAB2B0130A500260AA52B03105F
:10074800A50DFF3E031DA32B2508DA04B72B0130A6
:10075800A500260AB12B0310A50DFF3E031DAF2BE4
:100768002508FF3ADA055A08850008000130831287
:10077800B2003208B000B1013008B100B001300851
:10078800A7003108A800602201308312B2070530A3
:100798003202031CD02BD12BBD2B080003308A005A
:1007A8000408840A820700347E3430346D34793486
:0C07B80033345B345F3470347F347B34A6
:02400E009431EB
:00000001FF
