:020000000B28CB
:10000800DE00030E8312A1000A08A200A7280C280C
:100018000521B400AF01B001B101B201B301830100
:100028001528FA200D308312A800FB30A700A70B73
:100038001B28A80B1B2820288312B3019F280030F7
:10004800AE000030AD000230AC005830AB00A40167
:10005800A40A0130D82007308312A8007D30A700F9
:10006800A70B3428A80B3428C23083122B06031D93
:1000780043282C032D042E04031D43284428472815
:1000880001308312B1008312300803194C284D281F
:100098005228A401A40A0430D8205528A401043009
:1000A800D82001308312A7000030A8000030A90032
:1000B8000030AA002708AB022808031C280F65286F
:1000C8006628AC022908031C290F6B286C28AD028E
:1000D8002A08031C2A0F71287228AE022E082D0444
:1000E8002C042B04031D79287A282F28B101300805
:1000F80003197F288028862806303402031C8528A7
:1001080086288F28B301A4010130D820013083123A
:10011800B400B0019228B0010130B40730080319C7
:10012800962897289C28A401A40A0430D8209F2840
:10013800A4010430D82083123308031DA428A5285D
:1001480023289F280B280B1CAA28AB28D128A301F9
:10015800C028C730A000B028A00BAF28B328B42807
:100168005F3083122302031CBA28BB28BE28013043
:10017800B300C4280130A307851EC328C428AD28AE
:1001880031080319C828C928CF28851ACC28CD28B2
:10019800CF280130B000FE308B0522088A00210EDE
:1001A8008300DE0E5E0E09008312A6002403031DE1
:1001B800DE28DF28EB280130A500260AE5280310F1
:1001C800A50DFF3E031DE3282508B204F7280130DA
:1001D800A500260AF1280310A50DFF3E031DEF28F0
:1001E8002508FF3AB2053208850008008316850104
:1001F8002130850421309500C8308B0020309600CE
:0402080008000134B5
:02400E009431EB
:00000001FF
