:020000000B28CB
:10000800DE00030E8312A0000A08A100A42B0C280E
:100018008312D701D8018301112823230630C80091
:100028001330C700AD30C600C60B1828C70B1828F8
:10003800C80B18281F2837308312AE000430AF00D1
:1000480034224F30AE000330AF0034220E30AE0001
:100058000230AF0034221D30AE000130AF00342230
:10006800D8015808031935289F140030BB00003008
:10007800BA000330B900FF30B8004E232208C6008A
:100088002308C700C801C9014908AE004808AD00E7
:100098004708AC004608AB000030B2000030B100A1
:1000A8000030B000C830AF007A222E08BF002D08FB
:1000B800BE002C08BD002B08BC008E213B08CD00DB
:1000C8003A08CC003908CB003808CA004D08AE0001
:1000D8004C08AD004B08AC004A08AB000030B20039
:1000E8000030B1000030B0005A30AF007A222E083C
:1000F800D4002D08D3002C08D2002B08D100A2016F
:10010800A20A043071230130D0004F290030A50025
:100118000030A4000030A3006430A2005408A900F5
:100128005308A8005208A7005108A600EA2125088C
:100138002404230422040319A42850080319292994
:100148000030BB000030BA000030B900C830B80039
:100158005408BF005308BE005208BD005108BC0037
:100168008E213908D6003808D5005830A200023050
:10017800A3005608A5005508A400B9222208013E8C
:100188008400B623C60000304604AE000430AF0039
:1001980034220A30A9000030AA003C30A200003006
:1001A800A3005608A5005508A400B9222308AC00EE
:1001B8002208AB00F3222908013E8400B623C600BA
:1001C80080304604AE000330AF0034220A30A2006B
:1001D8000030A3005608AC005508AB003C30A9001D
:1001E8000030AA00F3222A08A5002908A400B92291
:1001F8002208013E8400B623C60000304604AE0043
:100208000230AF0034225608AC005508AB003C3031
:10021800A9000030AA00F3222A08CF002908CE003E
:100228000A30A9000030AA004F08AC004E08AB0005
:10023800F3222908013E8400B623C6000030460494
:10024800AE000130AF003422D0010530C700BA300B
:10025800C600C60B2D29C70B2D2932290130831260
:10026800C6000030C7000030C8000030C90046088A
:10027800D1024708031C470F42294329D2024808E4
:10028800031C480F48294929D3024908031C490F70
:100298004E294F29D4025408530452045104031D13
:1002A8005808031D8A28D801A2010430712390231D
:1002B8001D30AE000430AF0034224730AE000330AA
:1002C800AF0034224730AE000230AF00342206308F
:1002D800C8001330C700AD30C600C60B7129C70B64
:1002E8007129C80B7129782937308312AE00043080
:1002F800AF0034224F30AE000330AF0034220E304E
:10030800AE000230AF0034221D30AE000130AF0025
:10031800342235280030C4000030C3000030C20049
:100328000030C1003B083A04390438040319E129B4
:100338000130C500BB1BAC290130C0000310B80D4B
:10034800B90DBA0DBB0DC00BA2290130C5079E29F6
:100358000130C0000310C10DC20DC30DC40DC00B88
:10036800AE293B083F02031DC3293A083E02031D7C
:10037800C32939083D02031DC32938083C02031C60
:10038800D4293808BC023908031C390FBD023A08C1
:10039800031C3A0FBE023B08031C3B0FBF0241146B
:1003A80001300310BB0CBA0CB90CB80CFF3E031D8E
:1003B800D5290130C502031DAC294408BB004308F8
:1003C800BA004208B9004108B8000800250824040A
:1003D8002304220403192B2A0130AB00A51B002A91
:1003E8000130AA000310A20DA30DA40DA50DAA0BA0
:1003F800F6290130AB07F22925082902031D0E2A28
:1004080024082802031D0E2A23082702031D0E2A8A
:1004180022082602031C1E2A2208A6022308031CFF
:10042800230FA7022408031C240FA8022508031C75
:10043800250FA90201300310A50CA40CA30CA20CD3
:10044800FF3E031D1F2A0130AB02031D002A2908A5
:10045800A5002808A4002708A3002608A200080071
:10046800A20105307123B501B601831235080F3C8E
:10047800B000B00A0130B1000030B200462A0310C3
:10048800B10DB20DB00B432A2E083105B3002F0869
:100498003205B400330834040319552AA201A20A0C
:1004A800562AA2010130712300008312A201A20A78
:1004B8000230712300008312A2010230712301303F
:1004C800B5070318B60A0030B6073608803ADF00C9
:1004D80080305F02031D722A10303502031C392A4E
:1004E8008312A201A20A0530712308000030B70068
:1004F8000030B6000030B5000030B4002B1C982A3C
:100508002F08B407300803110318013E031DB5076F
:10051800310803110318013E031DB6073208031101
:100528000318013E031DB7070130B3000310AF0DD8
:10053800B00DB10DB20DB30B9A2A01300310AE0CF9
:10054800AD0CAC0CAB0CFF3E031DA22A2E082D04EB
:100558002C042B04031D822A3708AE003608AD0090
:100568003508AC003408AB000800A601A701220832
:1005780023040319EE2A0130A800A31BCD2A013059
:100588000310A20DA30DFF3E031DC42A0130A807C6
:10059800C12A01300310A60DA70DFF3E031DCE2A68
:1005A80023082502031DDA2A22082402031CE32A51
:1005B8002208A4022308031CA503A502261401305F
:1005C8000310A30CA20CFF3E031DE42A0130A8026D
:1005D800031DCD2A2708A3002608A2000800290821
:1005E8002A0403191E2B0130AD00AA1B052B01306C
:1005F8000310A90DAA0DFF3E031DFC2A0130AD070B
:10060800F92A2A082C02031D0B2B29082B02031C8C
:10061800132B2908AB022A08031CAC03AC020130D7
:100628000310AA0CA90CFF3E031D142B0130AD02C8
:10063800031D052B2C08AA002B08A9000800093067
:100648008316850001309500C8308B00083096006D
:10065800013083129F00113083169F0000308312EF
:10066800AE000930AF0034220230AE000A30AF00CD
:1006780034220E30AE000B30AF0034220130AE0011
:100688000C30AF0034220030AE000F30AF003422FF
:10069800902308009F184E2B83161E088312A4006F
:1006A80006300310A40CFF3E031D552B2408A5009B
:1006B800A6011E08A700A8010310A70DA80D031086
:1006C800A70DA80D25082704A90026082804AA00B4
:1006D8002908A2002A08A3000800A4002203031D79
:1006E800812B0130A300240A7B2B0310A30DFF3EAE
:1006F800031D792B2308D7048D2B0130A300240A6E
:10070800872B0310A30DFF3E031D852B2308FF3AFB
:10071800D7055708850008000130B9003908B70027
:10072800B8013708B800B7013708AE003808AF007D
:1007380034220130B9070530390203180800922B1A
:10074800851DAD2B5808031DAB2B0130AC2B003099
:10075800D800FE308B0521088A00200E8300DE0EAB
:100768005E0E090003308A000408840A82070034F8
:100778007E3430346D34793433345B345F347034E0
:040788007F347B340B
:02400E009431EB
:00000001FF
