:020000000B28CB
:10000800DE00030E8312A1000A08A20066290C284C
:100018008312D401D50183011128A8210630831247
:10002800CA001330C900AD30C800C80B1928C90B65
:100038001928CA0B192820288312D5015508031935
:1000480022289F140030BD000030BC000330BB00E4
:10005800FF30BA0043212408C8002508C900CA0196
:10006800CB014B08B0004A08AF004908AE00480869
:10007800AD000030B4000030B3000030B200C8302A
:10008800B10004213008C1002F08C0002E08BF00AD
:100098002D08BE00A8203D08CF003C08CE003B0834
:1000A800CD003A08CC004F08B0004E08AF004D080C
:1000B800AE004C08AD000030B4000030B300003092
:1000C800B2007830B10004213008D3002F08D200E4
:1000D8002E08D1002D08D000A401A40A01308921DE
:1000E8009B280630C900F830C800C80B7928C90B0E
:1000F8007928000001308312C8000030C9000030A0
:10010800CA000030CB004808D0024908031C490F38
:100118008E288F28D1024A08031C4A0F9428952854
:10012800D2024B08031C4B0F9A289B28D302530872
:10013800520451045004031D5508031D7528D501A8
:10014800A4010130892122280030C6000030C500F2
:100158000030C4000030C3003D083C043B043A04AE
:100168000319FB280130C700BD1BC6280130C20097
:100178000310BA0DBB0DBC0DBD0DC20BBC28013060
:10018800C707B8280130C2000310C30DC40DC50D40
:10019800C60DC20BC8283D084102031DDD283C08D6
:1001A8004002031DDD283B083F02031DDD283A08F5
:1001B8003E02031CEE283A08BE023B08031C3B0F14
:1001C800BF023C08031C3C0FC0023D08031C3D0F46
:1001D800C102431401300310BD0CBC0CBB0CBA0C9B
:1001E800FF3E031DEF280130C702031DC62846083D
:1001F800BD004508BC004408BB004308BA0008001D
:100208000030B9000030B8000030B7000030B60048
:100218002D1C22293108B607320803110318013EA4
:10022800031DB707330803110318013E031DB80760
:10023800340803110318013E031DB9070130B50046
:100248000310B10DB20DB30DB40DB50B2429013057
:100258000310B00CAF0CAE0CAD0CFF3E031D2C29E7
:1002680030082F042E042D04031D0C293908B00072
:100278003808AF003708AE003608AD0008009F18F0
:10028800432983161E088312A60006300310A60C05
:10029800FF3E031D4A292608A700A8011E08A90039
:1002A800AA010310A90DAA0D0310A90DAA0D27086C
:1002B8002904AB0028082A04AC002B08A4002C0849
:1002C800A5000800A301851A8029C730A0006C2961
:1002D800A00B6B296F2970290A3083122302031C93
:1002E8007D295508031D7A2901307B290030D50066
:1002F80080290130A3076729FE308B0522088A0070
:10030800210E8300DE0E5E0E0900A6002403031DE5
:1003180099290130A500260A93290310A50DFF3E4F
:10032800031D91292508D404A5290130A500260A12
:100338009F290310A50DFF3E031D9D292508FF3A9F
:10034800D4055408850008008316850121308504EA
:1003580025309500C8308B0020309600013083127C
:0A0368009F00113083169F0008006B
:02400E009431EB
:00000001FF
