:100000000428FF3FFF3FFF3F05288312B901BA01D3
:10001000BB01BC018301C72B8501B701250803196A
:100020000800B8010130A7000030A8003808A90076
:1000300001300310A90DFF3E031D19280310290DDF
:100040002507AA0026080318013EAB0027082A0747
:10005000840028080318280A2B07DF000023023A2F
:100060000319FF283808A70001300310A70DFF3E31
:10007000031D35280310270D2507840026080318C3
:10008000260ADF000023003A031D492883161F18A3
:10009000080083123808A70001300310A70DFF3EA7
:1000A000031D4D280310270D25078400260803187B
:1000B000260ADF000023013A031D612883169F18DA
:1000C000080083123808A70001300310A70DFF3E77
:1000D000031D65280310270D250784002608031833
:1000E000260ADF000023023A031D792883161F1910
:1000F000080083123808A70001300310A70DFF3E47
:10010000031D7D280310270D2507840026080318EA
:10011000260ADF000023043A031D912883169F1945
:10012000080001308312A7000030A8003808A90099
:1001300001300310A90DFF3E031D99280310290D5E
:100140002507AA0026080318013EAB0027082A0746
:10015000840028080318280A2B07DF000023A000CA
:100160000230AC000030AD003808AE0001300310A2
:10017000AE0DFF3E031DB72803102E0D2507AF005F
:1001800026080318013EB0002C082F0784002D0814
:1001900003182D0A3007DF000023A1000330B1004F
:1001A0000030B2003808B30001300310B30DFF3E39
:1001B000031DD5280310330D2507B40026080318A6
:1001C000013EB50031083407840032080318320AB2
:1001D0003507DF000023A2003808B6000130031005
:1001E000B60DFF3E031DEF280310360D25078400D2
:1001F00026080318260ADF000023F421B700370879
:10020000031D08000130B807063038020318080043
:100210001228200803190800A8012808A2002207B4
:100220002007840021080318210ADF000023A7000B
:100230000130A2000030A3002808A40024072007F2
:10024000A50021080318013EA60022082507840006
:1002500023080318230A2607DF000023A900A42986
:100260002908031D080083161F140514EB2929080B
:10027000031D0800FE304E292908A1292908031D65
:100280000800FE3096292903031D080083169F14D9
:100290008514EB292903031D0800FD309905EB297E
:1002A0002903031D080083169914EB292903A129AA
:1002B0002903031D0800FD30962902302906031D7D
:1002C000080083161F150515EB2902302906031DAA
:1002D0000800DF30702902302906031D0800BF30F6
:1002E00083168105EB2902302906031D0800191722
:1002F000EB2902302906031D0800FB309629033044
:10030000A02904302906031D080083169F15051631
:10031000EB2904302906031D08009017EB2904304F
:10032000A02904302906031D0800F73083169F0515
:10033000EB2905302906031D08009014EB29053030
:100340002906031D0800EB292708003A03193E2956
:10035000013A03193029033A03193729013A0319DD
:100360003C29073A03195829013A03194329033A4A
:1003700003194A29013A031950290F3A031956293A
:10038000013A03197929033A03195D29013A03193E
:100390006529073A03196B29013A03197329033AAE
:1003A00003197F29013A03197F291F3A031991295B
:1003B000013A03198129033A03198929013A0319DA
:1003C0008F29073A03199F29013A03199929033AFA
:1003D00003199F29F32901308312A8070630280248
:1003E000031808000D290800A40006302402031C8D
:1003F000FB29013008002008031D0B2A0130A3004F
:10040000240A042A0310A30DFF3E031D022A230819
:10041000831685041B2A2003031DF9290130A3003C
:10042000240A142A0310A30DFF3E031D122A2308D9
:10043000FF3A8316850583122203031D342A0330F5
:1004400024060319342A7F30831681050130831274
:10045000A300240A2D2A0310A30DFF3E031D2B2AFF
:10046000230883169504442A2208031DF929013024
:10047000A300240A3D2A0310A30DFF3E031D3B2ABF
:100480002308FF3A8316950583122003031D662A6D
:100490002103031D572A0130A300240A512A031007
:1004A000A30DFF3E031D4F2A23088504662A210859
:1004B000031DF9290130A300240A602A0310A30DAB
:1004C000FF3E031D5E2A2308FF3A85050030080021
:1004D000A20006302202031808002003031D7C2A14
:1004E0000130A100220A762A0310A10DFF3E031D50
:1004F000742A2108BB04882A0130A100220A822A1A
:100500000310A10DFF3E031D802A2108FF3ABB0501
:100510003B0885000800FF3FFF3FFF3FFF3FFF3FD5
:10060000DF1B0A2B83135F1883170008840A031962
:10061000DF0A08005F087F398A000408840A03198A
:10062000DF0A820000340034013400340234003424
:100630000334003400340134003400340134013414
:100640000034003402340234003400340334003403
:1006500000340034043400340034003405340034F1
:100660000034013400340034043401340A340234D8
:100670000E3403341034043414340534A10021083A
:10068000031D452B83161F185C2B83122103031DAA
:100690004C2B83169F185C2B023083122106031DFE
:1006A000542B83161F195C2B033083122106031D64
:1006B000080083169F1D0800F33083129F05210850
:1006C000A00001300310A00DFF3E031D622B03109C
:1006D000200D9F049F140800A1001F14BF309F0528
:1006E0001F088F3083169F051F16822B83161F1439
:1006F000912B83169F14912B83161F15912B831614
:100700009F15912B83122108003A0319762B013A89
:100710000319792B033A03197C2B013A03197F2B18
:10072000992B83122003031D972B9F1708007F30FE
:100730009F05080083129F189A2B9F1FA62B1E0847
:10074000A10083161E088312A000080083161E084D
:100750008312A20006300310A20CFF3E031DAB2B38
:100760002208A300A4011E08A500A6010310A50DE0
:10077000A60D0310A50DA60D23082504A700240827
:100780002604A8002708A0002808A100080032308D
:10079000A0008330A10009211A30A5008330A600F3
:1007A0000C208312A001A00A02306C23DB2BA001D5
:1007B000A00A0030682202303E239A232108BA00A2
:1007C0002008B90002303A02003003193902031C34
:1007D000D72BA001D92BFF3FFF3FFF3FFF3FFF3F3C
:02400E009431EB
:00000001FF
